{
	"data": {
		"bytecode": {
			"linkReferences": {},
			"object": "608060405234801561001057600080fd5b50610ad5806100206000396000f3fe608060405234801561001057600080fd5b506004361061004c5760003560e01c8063292a458514610051578063560f31921461006d578063ab755faf14610089578063c72ef41f146100bb575b600080fd5b61006b600480360381019061006691906106e9565b6100d7565b005b61008760048036038101906100829190610797565b610180565b005b6100a3600480360381019061009e9190610797565b6101de565b6040516100b29392919061085b565b60405180910390f35b6100d560048036038101906100d091906108a0565b610386565b005b6001604051806060016040528060005481526020018481526020018381525090806001815401808255809150506001900390600052602060002090600302016000909190919091506000820151816000015560208201518160010190805190602001906101459291906104ac565b5060408201518160020190805190602001906101629291906104ac565b5050506000808154809291906101779061095a565b91905055505050565b600061018b8261040d565b9050600181815481106101a1576101a06109a3565b5b90600052602060002090600302016000808201600090556001820160006101c89190610532565b6002820160006101d89190610532565b50505050565b600060608060006101ee8561040d565b905060018181548110610204576102036109a3565b5b9060005260206000209060030201600001546001828154811061022a576102296109a3565b5b90600052602060002090600302016001016001838154811061024f5761024e6109a3565b5b906000526020600020906003020160020181805461026c90610a01565b80601f016020809104026020016040519081016040528092919081815260200182805461029890610a01565b80156102e55780601f106102ba576101008083540402835291602001916102e5565b820191906000526020600020905b8154815290600101906020018083116102c857829003601f168201915b505050505091508080546102f890610a01565b80601f016020809104026020016040519081016040528092919081815260200182805461032490610a01565b80156103715780601f1061034657610100808354040283529160200191610371565b820191906000526020600020905b81548152906001019060200180831161035457829003601f168201915b50505050509050935093509350509193909250565b60006103918461040d565b905082600182815481106103a8576103a76109a3565b5b906000526020600020906003020160010190805190602001906103cc9291906104ac565b5081600182815481106103e2576103e16109a3565b5b906000526020600020906003020160020190805190602001906104069291906104ac565b5050505050565b600080600090505b60018054905081101561046b578260018281548110610437576104366109a3565b5b906000526020600020906003020160000154141561045857809150506104a7565b80806104639061095a565b915050610415565b506040517f08c379a000000000000000000000000000000000000000000000000000000000815260040161049e90610a7f565b60405180910390fd5b919050565b8280546104b890610a01565b90600052602060002090601f0160209004810192826104da5760008555610521565b82601f106104f357805160ff1916838001178555610521565b82800160010185558215610521579182015b82811115610520578251825591602001919060010190610505565b5b50905061052e9190610572565b5090565b50805461053e90610a01565b6000825580601f10610550575061056f565b601f01602090049060005260206000209081019061056e9190610572565b5b50565b5b8082111561058b576000816000905550600101610573565b5090565b6000604051905090565b600080fd5b600080fd5b600080fd5b600080fd5b6000601f19601f8301169050919050565b7f4e487b7100000000000000000000000000000000000000000000000000000000600052604160045260246000fd5b6105f6826105ad565b810181811067ffffffffffffffff82111715610615576106146105be565b5b80604052505050565b600061062861058f565b905061063482826105ed565b919050565b600067ffffffffffffffff821115610654576106536105be565b5b61065d826105ad565b9050602081019050919050565b82818337600083830152505050565b600061068c61068784610639565b61061e565b9050828152602081018484840111156106a8576106a76105a8565b5b6106b384828561066a565b509392505050565b600082601f8301126106d0576106cf6105a3565b5b81356106e0848260208601610679565b91505092915050565b60008060408385031215610700576106ff610599565b5b600083013567ffffffffffffffff81111561071e5761071d61059e565b5b61072a858286016106bb565b925050602083013567ffffffffffffffff81111561074b5761074a61059e565b5b610757858286016106bb565b9150509250929050565b6000819050919050565b61077481610761565b811461077f57600080fd5b50565b6000813590506107918161076b565b92915050565b6000602082840312156107ad576107ac610599565b5b60006107bb84828501610782565b91505092915050565b6107cd81610761565b82525050565b600081519050919050565b600082825260208201905092915050565b60005b8381101561080d5780820151818401526020810190506107f2565b8381111561081c576000848401525b50505050565b600061082d826107d3565b61083781856107de565b93506108478185602086016107ef565b610850816105ad565b840191505092915050565b600060608201905061087060008301866107c4565b81810360208301526108828185610822565b905081810360408301526108968184610822565b9050949350505050565b6000806000606084860312156108b9576108b8610599565b5b60006108c786828701610782565b935050602084013567ffffffffffffffff8111156108e8576108e761059e565b5b6108f4868287016106bb565b925050604084013567ffffffffffffffff8111156109155761091461059e565b5b610921868287016106bb565b9150509250925092565b7f4e487b7100000000000000000000000000000000000000000000000000000000600052601160045260246000fd5b600061096582610761565b91507fffffffffffffffffffffffffffffffffffffffffffffffffffffffffffffffff8214156109985761099761092b565b5b600182019050919050565b7f4e487b7100000000000000000000000000000000000000000000000000000000600052603260045260246000fd5b7f4e487b7100000000000000000000000000000000000000000000000000000000600052602260045260246000fd5b60006002820490506001821680610a1957607f821691505b60208210811415610a2d57610a2c6109d2565b5b50919050565b7f5461736b206e6f7420666f756e642e0000000000000000000000000000000000600082015250565b6000610a69600f836107de565b9150610a7482610a33565b602082019050919050565b60006020820190508181036000830152610a9881610a5c565b905091905056fea264697066735822122058aac521455f05145d58334976677f62ca0f625ae1f907a1ed6824ec74ef429864736f6c634300080c0033",
			"opcodes": "PUSH1 0x80 PUSH1 0x40 MSTORE CALLVALUE DUP1 ISZERO PUSH2 0x10 JUMPI PUSH1 0x0 DUP1 REVERT JUMPDEST POP PUSH2 0xAD5 DUP1 PUSH2 0x20 PUSH1 0x0 CODECOPY PUSH1 0x0 RETURN INVALID PUSH1 0x80 PUSH1 0x40 MSTORE CALLVALUE DUP1 ISZERO PUSH2 0x10 JUMPI PUSH1 0x0 DUP1 REVERT JUMPDEST POP PUSH1 0x4 CALLDATASIZE LT PUSH2 0x4C JUMPI PUSH1 0x0 CALLDATALOAD PUSH1 0xE0 SHR DUP1 PUSH4 0x292A4585 EQ PUSH2 0x51 JUMPI DUP1 PUSH4 0x560F3192 EQ PUSH2 0x6D JUMPI DUP1 PUSH4 0xAB755FAF EQ PUSH2 0x89 JUMPI DUP1 PUSH4 0xC72EF41F EQ PUSH2 0xBB JUMPI JUMPDEST PUSH1 0x0 DUP1 REVERT JUMPDEST PUSH2 0x6B PUSH1 0x4 DUP1 CALLDATASIZE SUB DUP2 ADD SWAP1 PUSH2 0x66 SWAP2 SWAP1 PUSH2 0x6E9 JUMP JUMPDEST PUSH2 0xD7 JUMP JUMPDEST STOP JUMPDEST PUSH2 0x87 PUSH1 0x4 DUP1 CALLDATASIZE SUB DUP2 ADD SWAP1 PUSH2 0x82 SWAP2 SWAP1 PUSH2 0x797 JUMP JUMPDEST PUSH2 0x180 JUMP JUMPDEST STOP JUMPDEST PUSH2 0xA3 PUSH1 0x4 DUP1 CALLDATASIZE SUB DUP2 ADD SWAP1 PUSH2 0x9E SWAP2 SWAP1 PUSH2 0x797 JUMP JUMPDEST PUSH2 0x1DE JUMP JUMPDEST PUSH1 0x40 MLOAD PUSH2 0xB2 SWAP4 SWAP3 SWAP2 SWAP1 PUSH2 0x85B JUMP JUMPDEST PUSH1 0x40 MLOAD DUP1 SWAP2 SUB SWAP1 RETURN JUMPDEST PUSH2 0xD5 PUSH1 0x4 DUP1 CALLDATASIZE SUB DUP2 ADD SWAP1 PUSH2 0xD0 SWAP2 SWAP1 PUSH2 0x8A0 JUMP JUMPDEST PUSH2 0x386 JUMP JUMPDEST STOP JUMPDEST PUSH1 0x1 PUSH1 0x40 MLOAD DUP1 PUSH1 0x60 ADD PUSH1 0x40 MSTORE DUP1 PUSH1 0x0 SLOAD DUP2 MSTORE PUSH1 0x20 ADD DUP5 DUP2 MSTORE PUSH1 0x20 ADD DUP4 DUP2 MSTORE POP SWAP1 DUP1 PUSH1 0x1 DUP2 SLOAD ADD DUP1 DUP3 SSTORE DUP1 SWAP2 POP POP PUSH1 0x1 SWAP1 SUB SWAP1 PUSH1 0x0 MSTORE PUSH1 0x20 PUSH1 0x0 KECCAK256 SWAP1 PUSH1 0x3 MUL ADD PUSH1 0x0 SWAP1 SWAP2 SWAP1 SWAP2 SWAP1 SWAP2 POP PUSH1 0x0 DUP3 ADD MLOAD DUP2 PUSH1 0x0 ADD SSTORE PUSH1 0x20 DUP3 ADD MLOAD DUP2 PUSH1 0x1 ADD SWAP1 DUP1 MLOAD SWAP1 PUSH1 0x20 ADD SWAP1 PUSH2 0x145 SWAP3 SWAP2 SWAP1 PUSH2 0x4AC JUMP JUMPDEST POP PUSH1 0x40 DUP3 ADD MLOAD DUP2 PUSH1 0x2 ADD SWAP1 DUP1 MLOAD SWAP1 PUSH1 0x20 ADD SWAP1 PUSH2 0x162 SWAP3 SWAP2 SWAP1 PUSH2 0x4AC JUMP JUMPDEST POP POP POP PUSH1 0x0 DUP1 DUP2 SLOAD DUP1 SWAP3 SWAP2 SWAP1 PUSH2 0x177 SWAP1 PUSH2 0x95A JUMP JUMPDEST SWAP2 SWAP1 POP SSTORE POP POP POP JUMP JUMPDEST PUSH1 0x0 PUSH2 0x18B DUP3 PUSH2 0x40D JUMP JUMPDEST SWAP1 POP PUSH1 0x1 DUP2 DUP2 SLOAD DUP2 LT PUSH2 0x1A1 JUMPI PUSH2 0x1A0 PUSH2 0x9A3 JUMP JUMPDEST JUMPDEST SWAP1 PUSH1 0x0 MSTORE PUSH1 0x20 PUSH1 0x0 KECCAK256 SWAP1 PUSH1 0x3 MUL ADD PUSH1 0x0 DUP1 DUP3 ADD PUSH1 0x0 SWAP1 SSTORE PUSH1 0x1 DUP3 ADD PUSH1 0x0 PUSH2 0x1C8 SWAP2 SWAP1 PUSH2 0x532 JUMP JUMPDEST PUSH1 0x2 DUP3 ADD PUSH1 0x0 PUSH2 0x1D8 SWAP2 SWAP1 PUSH2 0x532 JUMP JUMPDEST POP POP POP POP JUMP JUMPDEST PUSH1 0x0 PUSH1 0x60 DUP1 PUSH1 0x0 PUSH2 0x1EE DUP6 PUSH2 0x40D JUMP JUMPDEST SWAP1 POP PUSH1 0x1 DUP2 DUP2 SLOAD DUP2 LT PUSH2 0x204 JUMPI PUSH2 0x203 PUSH2 0x9A3 JUMP JUMPDEST JUMPDEST SWAP1 PUSH1 0x0 MSTORE PUSH1 0x20 PUSH1 0x0 KECCAK256 SWAP1 PUSH1 0x3 MUL ADD PUSH1 0x0 ADD SLOAD PUSH1 0x1 DUP3 DUP2 SLOAD DUP2 LT PUSH2 0x22A JUMPI PUSH2 0x229 PUSH2 0x9A3 JUMP JUMPDEST JUMPDEST SWAP1 PUSH1 0x0 MSTORE PUSH1 0x20 PUSH1 0x0 KECCAK256 SWAP1 PUSH1 0x3 MUL ADD PUSH1 0x1 ADD PUSH1 0x1 DUP4 DUP2 SLOAD DUP2 LT PUSH2 0x24F JUMPI PUSH2 0x24E PUSH2 0x9A3 JUMP JUMPDEST JUMPDEST SWAP1 PUSH1 0x0 MSTORE PUSH1 0x20 PUSH1 0x0 KECCAK256 SWAP1 PUSH1 0x3 MUL ADD PUSH1 0x2 ADD DUP2 DUP1 SLOAD PUSH2 0x26C SWAP1 PUSH2 0xA01 JUMP JUMPDEST DUP1 PUSH1 0x1F ADD PUSH1 0x20 DUP1 SWAP2 DIV MUL PUSH1 0x20 ADD PUSH1 0x40 MLOAD SWAP1 DUP2 ADD PUSH1 0x40 MSTORE DUP1 SWAP3 SWAP2 SWAP1 DUP2 DUP2 MSTORE PUSH1 0x20 ADD DUP3 DUP1 SLOAD PUSH2 0x298 SWAP1 PUSH2 0xA01 JUMP JUMPDEST DUP1 ISZERO PUSH2 0x2E5 JUMPI DUP1 PUSH1 0x1F LT PUSH2 0x2BA JUMPI PUSH2 0x100 DUP1 DUP4 SLOAD DIV MUL DUP4 MSTORE SWAP2 PUSH1 0x20 ADD SWAP2 PUSH2 0x2E5 JUMP JUMPDEST DUP3 ADD SWAP2 SWAP1 PUSH1 0x0 MSTORE PUSH1 0x20 PUSH1 0x0 KECCAK256 SWAP1 JUMPDEST DUP2 SLOAD DUP2 MSTORE SWAP1 PUSH1 0x1 ADD SWAP1 PUSH1 0x20 ADD DUP1 DUP4 GT PUSH2 0x2C8 JUMPI DUP3 SWAP1 SUB PUSH1 0x1F AND DUP3 ADD SWAP2 JUMPDEST POP POP POP POP POP SWAP2 POP DUP1 DUP1 SLOAD PUSH2 0x2F8 SWAP1 PUSH2 0xA01 JUMP JUMPDEST DUP1 PUSH1 0x1F ADD PUSH1 0x20 DUP1 SWAP2 DIV MUL PUSH1 0x20 ADD PUSH1 0x40 MLOAD SWAP1 DUP2 ADD PUSH1 0x40 MSTORE DUP1 SWAP3 SWAP2 SWAP1 DUP2 DUP2 MSTORE PUSH1 0x20 ADD DUP3 DUP1 SLOAD PUSH2 0x324 SWAP1 PUSH2 0xA01 JUMP JUMPDEST DUP1 ISZERO PUSH2 0x371 JUMPI DUP1 PUSH1 0x1F LT PUSH2 0x346 JUMPI PUSH2 0x100 DUP1 DUP4 SLOAD DIV MUL DUP4 MSTORE SWAP2 PUSH1 0x20 ADD SWAP2 PUSH2 0x371 JUMP JUMPDEST DUP3 ADD SWAP2 SWAP1 PUSH1 0x0 MSTORE PUSH1 0x20 PUSH1 0x0 KECCAK256 SWAP1 JUMPDEST DUP2 SLOAD DUP2 MSTORE SWAP1 PUSH1 0x1 ADD SWAP1 PUSH1 0x20 ADD DUP1 DUP4 GT PUSH2 0x354 JUMPI DUP3 SWAP1 SUB PUSH1 0x1F AND DUP3 ADD SWAP2 JUMPDEST POP POP POP POP POP SWAP1 POP SWAP4 POP SWAP4 POP SWAP4 POP POP SWAP2 SWAP4 SWAP1 SWAP3 POP JUMP JUMPDEST PUSH1 0x0 PUSH2 0x391 DUP5 PUSH2 0x40D JUMP JUMPDEST SWAP1 POP DUP3 PUSH1 0x1 DUP3 DUP2 SLOAD DUP2 LT PUSH2 0x3A8 JUMPI PUSH2 0x3A7 PUSH2 0x9A3 JUMP JUMPDEST JUMPDEST SWAP1 PUSH1 0x0 MSTORE PUSH1 0x20 PUSH1 0x0 KECCAK256 SWAP1 PUSH1 0x3 MUL ADD PUSH1 0x1 ADD SWAP1 DUP1 MLOAD SWAP1 PUSH1 0x20 ADD SWAP1 PUSH2 0x3CC SWAP3 SWAP2 SWAP1 PUSH2 0x4AC JUMP JUMPDEST POP DUP2 PUSH1 0x1 DUP3 DUP2 SLOAD DUP2 LT PUSH2 0x3E2 JUMPI PUSH2 0x3E1 PUSH2 0x9A3 JUMP JUMPDEST JUMPDEST SWAP1 PUSH1 0x0 MSTORE PUSH1 0x20 PUSH1 0x0 KECCAK256 SWAP1 PUSH1 0x3 MUL ADD PUSH1 0x2 ADD SWAP1 DUP1 MLOAD SWAP1 PUSH1 0x20 ADD SWAP1 PUSH2 0x406 SWAP3 SWAP2 SWAP1 PUSH2 0x4AC JUMP JUMPDEST POP POP POP POP POP JUMP JUMPDEST PUSH1 0x0 DUP1 PUSH1 0x0 SWAP1 POP JUMPDEST PUSH1 0x1 DUP1 SLOAD SWAP1 POP DUP2 LT ISZERO PUSH2 0x46B JUMPI DUP3 PUSH1 0x1 DUP3 DUP2 SLOAD DUP2 LT PUSH2 0x437 JUMPI PUSH2 0x436 PUSH2 0x9A3 JUMP JUMPDEST JUMPDEST SWAP1 PUSH1 0x0 MSTORE PUSH1 0x20 PUSH1 0x0 KECCAK256 SWAP1 PUSH1 0x3 MUL ADD PUSH1 0x0 ADD SLOAD EQ ISZERO PUSH2 0x458 JUMPI DUP1 SWAP2 POP POP PUSH2 0x4A7 JUMP JUMPDEST DUP1 DUP1 PUSH2 0x463 SWAP1 PUSH2 0x95A JUMP JUMPDEST SWAP2 POP POP PUSH2 0x415 JUMP JUMPDEST POP PUSH1 0x40 MLOAD PUSH32 0x8C379A000000000000000000000000000000000000000000000000000000000 DUP2 MSTORE PUSH1 0x4 ADD PUSH2 0x49E SWAP1 PUSH2 0xA7F JUMP JUMPDEST PUSH1 0x40 MLOAD DUP1 SWAP2 SUB SWAP1 REVERT JUMPDEST SWAP2 SWAP1 POP JUMP JUMPDEST DUP3 DUP1 SLOAD PUSH2 0x4B8 SWAP1 PUSH2 0xA01 JUMP JUMPDEST SWAP1 PUSH1 0x0 MSTORE PUSH1 0x20 PUSH1 0x0 KECCAK256 SWAP1 PUSH1 0x1F ADD PUSH1 0x20 SWAP1 DIV DUP2 ADD SWAP3 DUP3 PUSH2 0x4DA JUMPI PUSH1 0x0 DUP6 SSTORE PUSH2 0x521 JUMP JUMPDEST DUP3 PUSH1 0x1F LT PUSH2 0x4F3 JUMPI DUP1 MLOAD PUSH1 0xFF NOT AND DUP4 DUP1 ADD OR DUP6 SSTORE PUSH2 0x521 JUMP JUMPDEST DUP3 DUP1 ADD PUSH1 0x1 ADD DUP6 SSTORE DUP3 ISZERO PUSH2 0x521 JUMPI SWAP2 DUP3 ADD JUMPDEST DUP3 DUP2 GT ISZERO PUSH2 0x520 JUMPI DUP3 MLOAD DUP3 SSTORE SWAP2 PUSH1 0x20 ADD SWAP2 SWAP1 PUSH1 0x1 ADD SWAP1 PUSH2 0x505 JUMP JUMPDEST JUMPDEST POP SWAP1 POP PUSH2 0x52E SWAP2 SWAP1 PUSH2 0x572 JUMP JUMPDEST POP SWAP1 JUMP JUMPDEST POP DUP1 SLOAD PUSH2 0x53E SWAP1 PUSH2 0xA01 JUMP JUMPDEST PUSH1 0x0 DUP3 SSTORE DUP1 PUSH1 0x1F LT PUSH2 0x550 JUMPI POP PUSH2 0x56F JUMP JUMPDEST PUSH1 0x1F ADD PUSH1 0x20 SWAP1 DIV SWAP1 PUSH1 0x0 MSTORE PUSH1 0x20 PUSH1 0x0 KECCAK256 SWAP1 DUP2 ADD SWAP1 PUSH2 0x56E SWAP2 SWAP1 PUSH2 0x572 JUMP JUMPDEST JUMPDEST POP JUMP JUMPDEST JUMPDEST DUP1 DUP3 GT ISZERO PUSH2 0x58B JUMPI PUSH1 0x0 DUP2 PUSH1 0x0 SWAP1 SSTORE POP PUSH1 0x1 ADD PUSH2 0x573 JUMP JUMPDEST POP SWAP1 JUMP JUMPDEST PUSH1 0x0 PUSH1 0x40 MLOAD SWAP1 POP SWAP1 JUMP JUMPDEST PUSH1 0x0 DUP1 REVERT JUMPDEST PUSH1 0x0 DUP1 REVERT JUMPDEST PUSH1 0x0 DUP1 REVERT JUMPDEST PUSH1 0x0 DUP1 REVERT JUMPDEST PUSH1 0x0 PUSH1 0x1F NOT PUSH1 0x1F DUP4 ADD AND SWAP1 POP SWAP2 SWAP1 POP JUMP JUMPDEST PUSH32 0x4E487B7100000000000000000000000000000000000000000000000000000000 PUSH1 0x0 MSTORE PUSH1 0x41 PUSH1 0x4 MSTORE PUSH1 0x24 PUSH1 0x0 REVERT JUMPDEST PUSH2 0x5F6 DUP3 PUSH2 0x5AD JUMP JUMPDEST DUP2 ADD DUP2 DUP2 LT PUSH8 0xFFFFFFFFFFFFFFFF DUP3 GT OR ISZERO PUSH2 0x615 JUMPI PUSH2 0x614 PUSH2 0x5BE JUMP JUMPDEST JUMPDEST DUP1 PUSH1 0x40 MSTORE POP POP POP JUMP JUMPDEST PUSH1 0x0 PUSH2 0x628 PUSH2 0x58F JUMP JUMPDEST SWAP1 POP PUSH2 0x634 DUP3 DUP3 PUSH2 0x5ED JUMP JUMPDEST SWAP2 SWAP1 POP JUMP JUMPDEST PUSH1 0x0 PUSH8 0xFFFFFFFFFFFFFFFF DUP3 GT ISZERO PUSH2 0x654 JUMPI PUSH2 0x653 PUSH2 0x5BE JUMP JUMPDEST JUMPDEST PUSH2 0x65D DUP3 PUSH2 0x5AD JUMP JUMPDEST SWAP1 POP PUSH1 0x20 DUP2 ADD SWAP1 POP SWAP2 SWAP1 POP JUMP JUMPDEST DUP3 DUP2 DUP4 CALLDATACOPY PUSH1 0x0 DUP4 DUP4 ADD MSTORE POP POP POP JUMP JUMPDEST PUSH1 0x0 PUSH2 0x68C PUSH2 0x687 DUP5 PUSH2 0x639 JUMP JUMPDEST PUSH2 0x61E JUMP JUMPDEST SWAP1 POP DUP3 DUP2 MSTORE PUSH1 0x20 DUP2 ADD DUP5 DUP5 DUP5 ADD GT ISZERO PUSH2 0x6A8 JUMPI PUSH2 0x6A7 PUSH2 0x5A8 JUMP JUMPDEST JUMPDEST PUSH2 0x6B3 DUP5 DUP3 DUP6 PUSH2 0x66A JUMP JUMPDEST POP SWAP4 SWAP3 POP POP POP JUMP JUMPDEST PUSH1 0x0 DUP3 PUSH1 0x1F DUP4 ADD SLT PUSH2 0x6D0 JUMPI PUSH2 0x6CF PUSH2 0x5A3 JUMP JUMPDEST JUMPDEST DUP2 CALLDATALOAD PUSH2 0x6E0 DUP5 DUP3 PUSH1 0x20 DUP7 ADD PUSH2 0x679 JUMP JUMPDEST SWAP2 POP POP SWAP3 SWAP2 POP POP JUMP JUMPDEST PUSH1 0x0 DUP1 PUSH1 0x40 DUP4 DUP6 SUB SLT ISZERO PUSH2 0x700 JUMPI PUSH2 0x6FF PUSH2 0x599 JUMP JUMPDEST JUMPDEST PUSH1 0x0 DUP4 ADD CALLDATALOAD PUSH8 0xFFFFFFFFFFFFFFFF DUP2 GT ISZERO PUSH2 0x71E JUMPI PUSH2 0x71D PUSH2 0x59E JUMP JUMPDEST JUMPDEST PUSH2 0x72A DUP6 DUP3 DUP7 ADD PUSH2 0x6BB JUMP JUMPDEST SWAP3 POP POP PUSH1 0x20 DUP4 ADD CALLDATALOAD PUSH8 0xFFFFFFFFFFFFFFFF DUP2 GT ISZERO PUSH2 0x74B JUMPI PUSH2 0x74A PUSH2 0x59E JUMP JUMPDEST JUMPDEST PUSH2 0x757 DUP6 DUP3 DUP7 ADD PUSH2 0x6BB JUMP JUMPDEST SWAP2 POP POP SWAP3 POP SWAP3 SWAP1 POP JUMP JUMPDEST PUSH1 0x0 DUP2 SWAP1 POP SWAP2 SWAP1 POP JUMP JUMPDEST PUSH2 0x774 DUP2 PUSH2 0x761 JUMP JUMPDEST DUP2 EQ PUSH2 0x77F JUMPI PUSH1 0x0 DUP1 REVERT JUMPDEST POP JUMP JUMPDEST PUSH1 0x0 DUP2 CALLDATALOAD SWAP1 POP PUSH2 0x791 DUP2 PUSH2 0x76B JUMP JUMPDEST SWAP3 SWAP2 POP POP JUMP JUMPDEST PUSH1 0x0 PUSH1 0x20 DUP3 DUP5 SUB SLT ISZERO PUSH2 0x7AD JUMPI PUSH2 0x7AC PUSH2 0x599 JUMP JUMPDEST JUMPDEST PUSH1 0x0 PUSH2 0x7BB DUP5 DUP3 DUP6 ADD PUSH2 0x782 JUMP JUMPDEST SWAP2 POP POP SWAP3 SWAP2 POP POP JUMP JUMPDEST PUSH2 0x7CD DUP2 PUSH2 0x761 JUMP JUMPDEST DUP3 MSTORE POP POP JUMP JUMPDEST PUSH1 0x0 DUP2 MLOAD SWAP1 POP SWAP2 SWAP1 POP JUMP JUMPDEST PUSH1 0x0 DUP3 DUP3 MSTORE PUSH1 0x20 DUP3 ADD SWAP1 POP SWAP3 SWAP2 POP POP JUMP JUMPDEST PUSH1 0x0 JUMPDEST DUP4 DUP2 LT ISZERO PUSH2 0x80D JUMPI DUP1 DUP3 ADD MLOAD DUP2 DUP5 ADD MSTORE PUSH1 0x20 DUP2 ADD SWAP1 POP PUSH2 0x7F2 JUMP JUMPDEST DUP4 DUP2 GT ISZERO PUSH2 0x81C JUMPI PUSH1 0x0 DUP5 DUP5 ADD MSTORE JUMPDEST POP POP POP POP JUMP JUMPDEST PUSH1 0x0 PUSH2 0x82D DUP3 PUSH2 0x7D3 JUMP JUMPDEST PUSH2 0x837 DUP2 DUP6 PUSH2 0x7DE JUMP JUMPDEST SWAP4 POP PUSH2 0x847 DUP2 DUP6 PUSH1 0x20 DUP7 ADD PUSH2 0x7EF JUMP JUMPDEST PUSH2 0x850 DUP2 PUSH2 0x5AD JUMP JUMPDEST DUP5 ADD SWAP2 POP POP SWAP3 SWAP2 POP POP JUMP JUMPDEST PUSH1 0x0 PUSH1 0x60 DUP3 ADD SWAP1 POP PUSH2 0x870 PUSH1 0x0 DUP4 ADD DUP7 PUSH2 0x7C4 JUMP JUMPDEST DUP2 DUP2 SUB PUSH1 0x20 DUP4 ADD MSTORE PUSH2 0x882 DUP2 DUP6 PUSH2 0x822 JUMP JUMPDEST SWAP1 POP DUP2 DUP2 SUB PUSH1 0x40 DUP4 ADD MSTORE PUSH2 0x896 DUP2 DUP5 PUSH2 0x822 JUMP JUMPDEST SWAP1 POP SWAP5 SWAP4 POP POP POP POP JUMP JUMPDEST PUSH1 0x0 DUP1 PUSH1 0x0 PUSH1 0x60 DUP5 DUP7 SUB SLT ISZERO PUSH2 0x8B9 JUMPI PUSH2 0x8B8 PUSH2 0x599 JUMP JUMPDEST JUMPDEST PUSH1 0x0 PUSH2 0x8C7 DUP7 DUP3 DUP8 ADD PUSH2 0x782 JUMP JUMPDEST SWAP4 POP POP PUSH1 0x20 DUP5 ADD CALLDATALOAD PUSH8 0xFFFFFFFFFFFFFFFF DUP2 GT ISZERO PUSH2 0x8E8 JUMPI PUSH2 0x8E7 PUSH2 0x59E JUMP JUMPDEST JUMPDEST PUSH2 0x8F4 DUP7 DUP3 DUP8 ADD PUSH2 0x6BB JUMP JUMPDEST SWAP3 POP POP PUSH1 0x40 DUP5 ADD CALLDATALOAD PUSH8 0xFFFFFFFFFFFFFFFF DUP2 GT ISZERO PUSH2 0x915 JUMPI PUSH2 0x914 PUSH2 0x59E JUMP JUMPDEST JUMPDEST PUSH2 0x921 DUP7 DUP3 DUP8 ADD PUSH2 0x6BB JUMP JUMPDEST SWAP2 POP POP SWAP3 POP SWAP3 POP SWAP3 JUMP JUMPDEST PUSH32 0x4E487B7100000000000000000000000000000000000000000000000000000000 PUSH1 0x0 MSTORE PUSH1 0x11 PUSH1 0x4 MSTORE PUSH1 0x24 PUSH1 0x0 REVERT JUMPDEST PUSH1 0x0 PUSH2 0x965 DUP3 PUSH2 0x761 JUMP JUMPDEST SWAP2 POP PUSH32 0xFFFFFFFFFFFFFFFFFFFFFFFFFFFFFFFFFFFFFFFFFFFFFFFFFFFFFFFFFFFFFFFF DUP3 EQ ISZERO PUSH2 0x998 JUMPI PUSH2 0x997 PUSH2 0x92B JUMP JUMPDEST JUMPDEST PUSH1 0x1 DUP3 ADD SWAP1 POP SWAP2 SWAP1 POP JUMP JUMPDEST PUSH32 0x4E487B7100000000000000000000000000000000000000000000000000000000 PUSH1 0x0 MSTORE PUSH1 0x32 PUSH1 0x4 MSTORE PUSH1 0x24 PUSH1 0x0 REVERT JUMPDEST PUSH32 0x4E487B7100000000000000000000000000000000000000000000000000000000 PUSH1 0x0 MSTORE PUSH1 0x22 PUSH1 0x4 MSTORE PUSH1 0x24 PUSH1 0x0 REVERT JUMPDEST PUSH1 0x0 PUSH1 0x2 DUP3 DIV SWAP1 POP PUSH1 0x1 DUP3 AND DUP1 PUSH2 0xA19 JUMPI PUSH1 0x7F DUP3 AND SWAP2 POP JUMPDEST PUSH1 0x20 DUP3 LT DUP2 EQ ISZERO PUSH2 0xA2D JUMPI PUSH2 0xA2C PUSH2 0x9D2 JUMP JUMPDEST JUMPDEST POP SWAP2 SWAP1 POP JUMP JUMPDEST PUSH32 0x5461736B206E6F7420666F756E642E0000000000000000000000000000000000 PUSH1 0x0 DUP3 ADD MSTORE POP JUMP JUMPDEST PUSH1 0x0 PUSH2 0xA69 PUSH1 0xF DUP4 PUSH2 0x7DE JUMP JUMPDEST SWAP2 POP PUSH2 0xA74 DUP3 PUSH2 0xA33 JUMP JUMPDEST PUSH1 0x20 DUP3 ADD SWAP1 POP SWAP2 SWAP1 POP JUMP JUMPDEST PUSH1 0x0 PUSH1 0x20 DUP3 ADD SWAP1 POP DUP2 DUP2 SUB PUSH1 0x0 DUP4 ADD MSTORE PUSH2 0xA98 DUP2 PUSH2 0xA5C JUMP JUMPDEST SWAP1 POP SWAP2 SWAP1 POP JUMP INVALID LOG2 PUSH5 0x6970667358 0x22 SLT KECCAK256 PC 0xAA 0xC5 0x21 GASLIMIT 0x5F SDIV EQ 0x5D PC CALLER 0x49 PUSH23 0x677F62CA0F625AE1F907A1ED6824EC74EF429864736F6C PUSH4 0x4300080C STOP CALLER "
		},
		"gasEstimates": {
			"creation": {
				"codeDepositCost": "554600",
				"executionCost": "587",
				"totalCost": "555187"
			},
			"external": {
				"createTask(string,string)": "infinite",
				"deleteTask(uint256)": "infinite",
				"readTask(uint256)": "infinite",
				"updateTask(uint256,string,string)": "infinite"
			},
			"internal": {
				"findIndex(uint256)": "infinite"
			}
		},
		"methodIdentifiers": {
			"createTask(string,string)": "292a4585",
			"deleteTask(uint256)": "560f3192",
			"readTask(uint256)": "ab755faf",
			"updateTask(uint256,string,string)": "c72ef41f"
		}
	},
	"abi": [
		{
			"inputs": [
				{
					"internalType": "string",
					"name": "_name",
					"type": "string"
				},
				{
					"internalType": "string",
					"name": "_description",
					"type": "string"
				}
			],
			"name": "createTask",
			"outputs": [],
			"stateMutability": "nonpayable",
			"type": "function"
		},
		{
			"inputs": [
				{
					"internalType": "uint256",
					"name": "_id",
					"type": "uint256"
				}
			],
			"name": "deleteTask",
			"outputs": [],
			"stateMutability": "nonpayable",
			"type": "function"
		},
		{
			"inputs": [
				{
					"internalType": "uint256",
					"name": "_id",
					"type": "uint256"
				}
			],
			"name": "readTask",
			"outputs": [
				{
					"internalType": "uint256",
					"name": "",
					"type": "uint256"
				},
				{
					"internalType": "string",
					"name": "",
					"type": "string"
				},
				{
					"internalType": "string",
					"name": "",
					"type": "string"
				}
			],
			"stateMutability": "view",
			"type": "function"
		},
		{
			"inputs": [
				{
					"internalType": "uint256",
					"name": "_id",
					"type": "uint256"
				},
				{
					"internalType": "string",
					"name": "_name",
					"type": "string"
				},
				{
					"internalType": "string",
					"name": "_description",
					"type": "string"
				}
			],
			"name": "updateTask",
			"outputs": [],
			"stateMutability": "nonpayable",
			"type": "function"
		}
	]
}